:100000000C9462000C948A000C948A000C948A0070
:100010000C948A000C948A000C948A000C948A0038
:100020000C948A000C948A000C948A000C948A0028
:100030000C948A000C948A000C948A000C948A0018
:100040000C9423030C948A000C9493030C946D037A
:100050000C948A000C948A000C948A000C948A00F8
:100060000C948A000C948A000000000024002700F1
:100070002A000000000023002600290000000000E4
:10008000250028002B0004040404040404040202D4
:100090000202020203030303030301020408102007
:1000A0004080010204081020010204081020000012
:1000B0000008000201000003040700000000000027
:1000C0000000C50311241FBECFEFD8E0DEBFCDBFB7
:1000D00011E0A0E0B1E0ECE7FBE002C005900D927A
:1000E000A233B107D9F722E0A2E3B1E001C01D922B
:1000F000A335B207E1F710E0C2E6D0E004C02197D3
:10010000FE010E94B605C136D107C9F70E9404045A
:100110000C94BC050C940000833081F028F48130ED
:1001200099F08230A9F008958730A9F08830C9F09D
:100130008430B1F4809180008F7D03C08091800075
:100140008F7780938000089584B58F7784BD08955C
:1001500084B58F7DFBCF8091B0008F778093B00006
:1001600008958091B0008F7DF9CF1F93CF93DF93D7
:10017000EBEBF0E09491E7EAF0E0D491E3E9F0E012
:10018000C491CC23B9F0182F992319F0892F0E941C
:100190008C00EC2FF0E0EE0FFF1FE458FF4FA5910D
:1001A000B4918FB7F894EC91111108C0D095DE236B
:1001B000DC938FBFDF91CF911F910895DE2BF8CF95
:1001C000CF93DF93E0EBF0E08491ECE9F0E0D491A1
:1001D000E8E8F0E0C491CC23A1F081110E948C00EA
:1001E000EC2FF0E0EE0FFF1FEE58FF4FA591B491FA
:1001F000EC91ED2381E090E009F480E0DF91CF9174
:10020000089580E090E0FACF3FB7F89480913C01E8
:1002100090913D01A0913E01B0913F0126B5A89B70
:1002200005C02F3F19F00196A11DB11D3FBFBA2F88
:10023000A92F982F8827BC01CD01620F711D811D48
:10024000911D43E0660F771F881F991F4A95D1F7CC
:100250000895AF92BF92CF92DF92EF92FF920F93E9
:100260001F93CF93DF938B01D0E0C0E001975C0137
:100270008091490290914A02DC01ED91FC91008449
:10028000F185E02D0995A816B906ACF00E9404018D
:100290006B017C010E9404016C197D098E099F0984
:1002A000683E734081059105A8F321960C171D0740
:1002B000F9F680E001C081E0DF91CF911F910F91AD
:1002C000FF90EF90DF90CF90BF90AF900895AF92E6
:1002D000BF92CF92DF92EF92FF920F931F93CF9333
:1002E000DF936C017B018B01040F151FEB015E0195
:1002F000AE18BF08C017D10759F06991D601ED912A
:10030000FC910190F081E02DC6010995892B79F7C8
:10031000C501DF91CF911F910F91FF90EF90DF907A
:10032000CF90BF90AF900895FC01538D448D252F41
:1003300030E0842F90E0821B930B541710F0CF967F
:10034000089501970895FC01918D828D981761F0B1
:10035000A28DAE0FBF2FB11D5D968C91928D9F5FC8
:100360009F73928F90E008958FEF9FEF0895FC01A7
:10037000918D828D981731F0828DE80FF11D858D5A
:1003800090E008958FEF9FEF0895FC01918D228DED
:10039000892F90E0805C9F4F821B91098F73992772
:1003A000089588E491E00E94C50121E0892B09F4B9
:1003B00020E0822F089580E090E0892B29F00E94B0
:1003C000D10181110C9400000895FC01A48DA80FA7
:1003D000B92FB11DA35ABF4F2C91848D90E0019687
:1003E0008F739927848FA689B7892C93A089B189A7
:1003F0008C91837080648C93938D848D981306C048
:100400000288F389E02D80818F7D80830895EF92AB
:10041000FF920F931F93CF93DF93EC0181E0888FBE
:100420009B8D8C8D98131AC0E889F989808185FF8E
:1004300015C09FB7F894EE89FF896083E889F98930
:1004400080818370806480839FBF81E090E0DF9132
:10045000CF911F910F91FF90EF900895F62E0B8D85
:1004600010E00F5F1F4F0F731127E02E8C8D8E1140
:100470000CC00FB607FCFACFE889F989808185FFA7
:10048000F5CFCE010E94E501F1CFEB8DEC0FFD2FF2
:10049000F11DE35AFF4FF0829FB7F8940B8FEA8962
:1004A000FB8980818062CFCFCF93DF93EC01888D71
:1004B0008823B9F0AA89BB89E889F9898C9185FDDF
:1004C00003C0808186FD0DC00FB607FCF7CF8C916D
:1004D00085FFF2CF808185FFEDCFCE010E94E5013F
:1004E000E9CFDF91CF910895DC01ED91FC9101906E
:1004F000F081E02D0994CF92DF92EF92FF920F935B
:100500001F93CF93DF9300D000D0CDB7DEB78FB766
:10051000F894C0903801D0903901E0903A01F09001
:100520003B018FBF0E94E0000E94E0002FB7F894CB
:100530008091380190913901A0913A01B0913B012D
:100540002FBF8C199D09AE09BF0981329E44A105B8
:10055000B10540F380913201882309F460C0109204
:10056000320180E00E94B50087E0809333018FE183
:10057000809334011092350110923601809133013D
:1005800090913401A0913501B091360189839A830D
:10059000AB83BC836CEF7FEF8091490290914A025C
:1005A0000E9474028E010F5F1F4F7E0185E0E80EEE
:1005B000F11C8091490290914A02D8016D918D0100
:1005C000DC01ED91FC910190F081E02D0995E016A0
:1005D000F10679F76DEF7FEF8091490290914A0221
:1005E0000E9474026EEF7FEF8091490290914A025F
:1005F0000E94740282E1E82E81E0F82E10E08091E2
:10060000490290914A021F3171F0F70161917F0117
:10061000062E000C770B0E9474021F5FF0CF81E062
:10062000809332019FCF6FEF7FEF0F900F900F906D
:100630000F90DF91CF911F910F91FF90EF90DF907E
:10064000CF900C9474021F920F920FB60F92112448
:100650002F933F938F939F93AF93BF9380913801D4
:1006600090913901A0913A01B0913B01309137014D
:1006700026E0230F2D3758F50296A11DB11D2093BA
:1006800037018093380190933901A0933A01B093D8
:100690003B0180913C0190913D01A0913E01B091C0
:1006A0003F010196A11DB11D80933C0190933D0136
:1006B000A0933E01B0933F01BF91AF919F918F9165
:1006C0003F912F910F900FBE0F901F90189529E822
:1006D000230F0396A11DB11DD2CF1F920F920FB60B
:1006E0000F9211242F933F934F935F936F937F93B8
:1006F0008F939F93AF93BF93EF93FF9388E491E021
:100700000E94E501FF91EF91BF91AF919F918F9171
:100710007F916F915F914F913F912F910F900FBEFD
:100720000F901F9018951F920F920FB60F921124E1
:100730002F938F939F93EF93FF93E0915801F09144
:1007400059018081E0915E01F0915F0182FD1BC043
:100750009081809161018F5F8F7320916201821778
:1007600041F0E0916101F0E0E85BFE4F958F8093EE
:100770006101FF91EF919F918F912F910F900FBE8B
:100780000F901F9018958081F4CFE8E4F1E0138278
:10079000128288EE93E0A0E0B0E084839583A68384
:1007A000B78384E091E09183808385EC90E0958726
:1007B000848784EC90E09787868780EC90E0918B2B
:1007C000808B81EC90E0938B828B82EC90E0958B18
:1007D000848B86EC90E0978B868B118E128E138E15
:1007E000148EF0934A02E0934902E0E4F1E089E9D3
:1007F000808387E1818384E3828381E08383148221
:100800001582168217820895CF93DF93CDB7DEB796
:100810002C970FB6F894DEBF0FBECDBF789484B589
:10082000826084BD84B5816084BD85B5826085BDEC
:1008300085B5816085BD80916E00816080936E007A
:10084000109281008091810082608093810080916C
:10085000810081608093810080918000816080931D
:1008600080008091B10084608093B1008091B000DD
:1008700081608093B00080917A00846080937A00D8
:1008800080917A00826080937A0080917A008E7FD6
:1008900080937A0080917A00806880937A00109229
:1008A000C100E0915801F091590182E08083E0910C
:1008B0005401F09155011082E0915601F0915701D9
:1008C00080E1808310926001E0915C01F0915D0114
:1008D00086E08083E0915A01F0915B018081806124
:1008E0008083E0915A01F0915B0180818860808370
:1008F000E0915A01F0915B01808180688083E091F2
:100900005A01F0915B0180818F7D8083E7EAF0E0FE
:100910002491E3E9F0E08491882399F090E0880F36
:10092000991FFC01E859FF4FA591B491FC01E458CF
:10093000FF4F859194918FB7F894EC91E22BEC9353
:100940008FBFECE9F0E02491E8E8F0E0849188239F
:10095000C9F090E0880F991FFC01E859FF4F4591BD
:100960005491FC01E458FF4FA591B4919FB7F894BE
:10097000FA013081822F809583238083EC91E22BD2
:10098000EC939FBF809144018260809344018BE788
:1009900092E090934E0280934D026E01FDE0CF0EE7
:1009A000D11C90E0E92E90E0F92E809149029091BF
:1009B0004A02DC01ED91FC910084F185E02D09955E
:1009C000892B09F450C08091490290914A02DC01C0
:1009D000ED91FC910284F385E02D09958C3F09F09F
:1009E00042C064E670E085E090E00E94290188231F
:1009F000D1F18E01075F1F4F5801809149029091FC
:100A00004A02DC01ED91FC910284F385E02D099509
:100A1000F80181938F01EC15FD0579F7809149026A
:100A200090914A02DC01ED91FC910284F385E02D66
:100A3000099589853A852B859C8580933301309370
:100A400034012093350190933601833009F476C048
:100A5000B0F4813009F446C0E0914B02F0914C02B1
:100A6000823009F46FC0E114F10409F49ECF0E94B2
:100A7000D101882309F499CF0E94000096CF8430D9
:100A800009F462C0853079F780903401082D10E0B8
:100A900062E370E0C80102960E942901882319F3DD
:100AA0008091490290914A02DC01ED91FC9102840F
:100AB000F385E02D099585EEA82E81E0B82E912CC6
:100AC0008091490290914A02DC01ED91FC910284EF
:100AD000F385E02D8914E9F10995F50181935F0112
:100AE0009394EECF88E0E0E4F1E0DE01119601900E
:100AF0000D928A95E1F76EEF7FEF80914902909118
:100B00004A020E9474028E010F5F1F4FF80161912B
:100B10008F01062E000C770B8091490290914A02BA
:100B20000E947402A016B10689F76FEF7FEF8091E3
:100B3000490290914A020E94740295CFE0914D02C1
:100B4000F0914E0209958FCFE0914F02F091500243
:100B5000F9CF0995F801EB51FE4F1082E091510257
:100B6000F091520285EE91E009957DCFEE0FFF1FC7
:0C0B70000590F491E02D0994F894FFCF5B
:100B7C00000000000702670194015402C501A301A3
:100B8C00B7017075626C6973682074656C652F763B
:100B9C00656E74696C617469652F72706D2031308B
:020BAC00300017
:00000001FF
